:020000040000FA
:100000006802001069010000710100007301000026
:100010007501000077010000790100000000000078
:100020000000000000000000000000007B01000054
:100030007D010000000000007F0100008101000040
:1000400083010000830100008301000083010000A0
:100050008301000083010000830100008301000090
:100060008301000083010000830100008301000080
:100070008301000083010000830100008301000070
:100080008301000083010000830100008301000060
:100090008301000083010000830100008301000050
:1000A0008301000083010000830100008301000040
:1000B0008301000083010000830100008301000030
:1000C00083010000830100008301000000F002F8BA
:1000D00000F03AF80AA090E8000C82448344AAF1A8
:1000E0000107DA4501D100F02FF8AFF2090EBAE8A6
:1000F0000F0013F0010F18BFFB1A43F0010318475C
:10010000D4010000F4010000103A24BF78C878C17F
:10011000FAD8520724BF30C830C144BF04680C600D
:10012000704700000023002400250026103A28BF55
:1001300078C1FBD8520728BF30C148BF0B60704759
:100140001FB51FBD10B510BD00F02FF81146FFF709
:10015000F7FF00F0BDF800F04DF803B4FFF7F2FF31
:1001600003BC00F055F800000948804709480047E3
:10017000FEE7FEE7FEE7FEE7FEE7FEE7FEE7FEE757
:10018000FEE7FEE704480549034A054B70470000B7
:1001900001030000CD00000068000010680200109C
:1001A00068000010704770477047754600F02CF8E3
:1001B000AE4605006946534620F00700854618B054
:1001C00020B5FFF7DFFFBDE820404FF000064FF0FD
:1001D00000074FF000084FF0000B21F00701AC467C
:1001E000ACE8C009ACE8C009ACE8C009ACE8C0099B
:1001F0008D46704710B50446AFF300802046BDE839
:100200001040FFF7AABF0000004870470800001028
:1002100001491820ABBEFEE726000200704700002F
:100220002648006840F480502449C439C1F8C4000D
:100230002348406840F480402149486008464068AF
:1002400040F4803048600846406C40F40040486408
:100250000846406C40F4003048641A48006840F496
:100260000070184908600846006840F400100860F3
:100270000846006840F0030008601EE0114800686E
:1002800040F480300F49086000BF0E4840680121EB
:1002900001EAD07028B90B48406801EAD070002804
:1002A000F3D008484068C0F30B10074908600548C0
:1002B0004068C0F30B1005490860DFE7C4C00F4079
:1002C00000C0024000400340000000100400001085
:1002D000FFF7A6FFF8030000000000100800000070
:1002E0000801000000040000080000106002000087
:1002F000240100000000000000000000FFFFFFFFDD
:1003000000202021394A116000BF3849096801F0F6
:1003100040010029F9D00321344A9C3A11600021A0
:10032000334AC2F8A811314A0C32116001212F4A18
:10033000943A11600B212E4A843211600121121F60
:100340001160AA212A4A8C3211605521284AC2F82C
:100350008C10264994390968022908D000BF244925
:100360008831096801F080610029F8D004E000209C
:1003700000E0401C6428FCD903211D4A8032116032
:10038000AA211B4AC2F88C105521194A8C321160DF
:100390002321174AA43211600121121F1160AA21E2
:1003A000134AAC3211605521116000BF1049A831C9
:1003B000096801F480610029F8D003210C4AA032B9
:1003C0001160AA210A4AC2F8AC105521084AAC3281
:1003D00011600849064AC43211600021034A2832DC
:1003E000116043F23A01024A11607047A0C10F4008
:1003F00000C00F40DE87280400000000000000005D
:04000005000001698D
:00000001FF
