:020000040000FA
:10000000600200104D010000550100005701000082
:10001000590100005B0100005D01000000000000CC
:100020000000000000000000000000005F01000070
:100030006101000000000000630100006501000094
:100040006701000067010000670100006701000010
:100050006701000067010000670100006701000000
:1000600067010000670100006701000067010000F0
:1000700067010000670100006701000067010000E0
:1000800067010000670100006701000067010000D0
:1000900067010000670100006701000067010000C0
:1000A00067010000670100006701000067010000B0
:1000B00067010000670100006701000067010000A0
:1000C00067010000670100006701000000F002F80E
:1000D00000F02CF80AA090E8000C82448344AAF1B6
:1000E0000107DA4501D100F021F8AFF2090EBAE8B4
:1000F0000F0013F0010F18BFFB1A43F0010318475C
:10010000CC010000DC0100000023002400250026B3
:10011000103A28BF78C1FBD8520728BF30C148BF6A
:100120000B6070471FB51FBD10B510BD00F02FF854
:100130001146FFF7F7FF00F0A9F800F04DF803B4FF
:10014000FFF7F2FF03BC00F055F8000009488047B4
:1001500009480047FEE7FEE7FEE7FEE7FEE7FEE7A9
:10016000FEE7FEE7FEE7FEE704480549034A054BC4
:100170007047000001030000CD0000006000001087
:1001800060020010600000107047704770477546AD
:1001900000F02CF8AE4605006946534620F00700F3
:1001A000854618B020B5FFF7DFFFBDE820404FF0CF
:1001B00000064FF000074FF000084FF0000B21F051
:1001C0000701AC46ACE8C009ACE8C009ACE8C0091E
:1001D000ACE8C0098D46704710B50446AFF3008007
:1001E0002046BDE81040FFF7AABF00000048704756
:1001F0000000001001491820ABBEFEE726000200F7
:100200007047000030B50346084C202505FB03402D
:100210002AB101258D4004682C43046005E00125C6
:100220008D40046864EA0504046030BD00C0092004
:1002300070B503460F2910DC134C082505FB03405D
:100240004E000325B5400468AC4304604D0002FA3B
:1002500005F504682C43046014E00B4C241D0825AC
:1002600005FB0340A1F110056E000325B5400468AD
:10027000AC430460A1F110056D0002FA05F50468B5
:100280002C43046070BD000000C002400022152114
:100290000120FFF7CDFF012215211046FFF7B2FF25
:1002A000002216210120FFF7C3FF0122162110466C
:1002B000FFF7A8FF002217210120FFF7B9FF012255
:1002C00017211046FFF79EFF00BFFEE7F80300006E
:1002D00000000010600200000801000000000000A3
:1002E000000000000000000000000000000000000E
:1002F000000000000000000000000000FFFFFFFF02
:1003000000202021394A116000BF3849096801F0F6
:1003100040010029F9D00321344A9C3A11600021A0
:10032000334AC2F8A811314A0C32116001212F4A18
:10033000943A11600B212E4A843211600121121F60
:100340001160AA212A4A8C3211605521284AC2F82C
:100350008C10264994390968022908D000BF244925
:100360008831096801F080610029F8D004E000209C
:1003700000E0401C6428FCD903211D4A8032116032
:10038000AA211B4AC2F88C105521194A8C321160DF
:100390002321174AA43211600121121F1160AA21E2
:1003A000134AAC3211605521116000BF1049A831C9
:1003B000096801F480610029F8D003210C4AA032B9
:1003C0001160AA210A4AC2F8AC105521084AAC3281
:1003D00011600849064AC43211600021034A2832DC
:1003E000116043F23A01024A11607047A0C10F4008
:0803F00000C00F40DE87280465
:040000050000014DA9
:00000001FF
