:020000040000FA
:100000006802001069010000710100007301000026
:100010007501000077010000790100000000000078
:100020000000000000000000000000007B01000054
:100030007D010000000000007F0100008101000040
:1000400083010000830100008301000083010000A0
:100050008301000083010000830100008301000090
:100060008301000083010000830100008301000080
:100070008301000083010000830100008301000070
:100080008301000083010000830100008301000060
:100090008301000083010000830100008301000050
:1000A0008301000083010000830100008301000040
:1000B0008301000083010000830100008301000030
:1000C00083010000830100008301000000F002F8BA
:1000D00000F03AF80AA090E8000C82448344AAF1A8
:1000E0000107DA4501D100F02FF8AFF2090EBAE8A6
:1000F0000F0013F0010F18BFFB1A43F0010318475C
:100100008C010000AC010000103A24BF78C878C10F
:10011000FAD8520724BF30C830C144BF04680C600D
:10012000704700000023002400250026103A28BF55
:1001300078C1FBD8520728BF30C148BF0B60704759
:100140001FB51FBD10B510BD00F02FF81146FFF709
:10015000F7FF00F06DF800F04DF803B4FFF7F2FF81
:1001600003BC00F055F800000948804709480047E3
:10017000FEE7FEE7FEE7FEE7FEE7FEE7FEE7FEE757
:10018000FEE7FEE704480549034A054B70470000B7
:1001900045040000CD000000680000106802001057
:1001A00068000010704770477047754600F02CF8E3
:1001B000AE4605006946534620F00700854618B054
:1001C00020B5FFF7DFFFBDE820404FF000064FF0FD
:1001D00000074FF000084FF0000B21F00701AC467C
:1001E000ACE8C009ACE8C009ACE8C009ACE8C0099B
:1001F0008D46704710B50446AFF300802046BDE839
:100200001040FFF7AABF000000487047040000102C
:1002100001491820ABBEFEE726000200704742F2FB
:10022000E02000BF011EA0F10100FBD170470000DB
:1002300000F066F800F01AF80B48006A40F0005031
:10024000094908620846806B40F000508863FFF758
:10025000E6FF0548C06B40F000500349C863FFF754
:10026000DEFF00BFFEE7000000C0092003204FF0C2
:10027000804108700448486001200861AA20087283
:100280005520087270470000E86E03003C0500002E
:1002900000000010040000000801000040050000FC
:1002A00004000010640200002401000000000000AF
:1002B000000000000000000000000000000000003E
:1002C000000000000000000000000000000000002E
:1002D000000000000000000000000000000000001E
:1002E000000000000000000000000000000000000E
:1002F000000000000000000000000000FFFFFFFF02
:100300004C480068C0F30160032860D1494884303C
:10031000006800F0030030B1012820D0022839D055
:10032000032853D100E000BF42480068C0F30E002C
:10033000401C41003F488838D0F88800C0F307408F
:10034000401CB1FBF0F03C4948433A497C31096814
:10035000C9B2491CB0FBF1F03849086036E03548B5
:100360000068C0F30E00401C410032488838D0F8C5
:100370008800C0F30740401CB1FBF0F0304948430F
:100380002C497C310968C9B2491CB0FBF1F02B49FA
:1003900008601BE027480068C0F30E00401C4100C5
:1003A00024488838D0F88800C0F30740401CB1FBCF
:1003B000F0F04FF4FA4148431E497C310968C9B254
:1003C000491CB0FBF1F01D49086000BF30E019483E
:1003D0008430006800F0030030B1012810D00228FA
:1003E00019D0032823D100E000BF12487C300068F8
:1003F000C0B2401C1049B1FBF0F01049086016E093
:100400000C487C300068C0B2401C0D49B1FBF0F0D4
:100410000A4908600BE007487C300068C0B2401C05
:100420004FF4FA41B1FBF0F00449086000BF00BF8F
:100430007047000088C00F4000093D000000001018
:10044000001BB70000202021394A116000BF384945
:10045000096801F040010029F9D00321344A9C3A8F
:1004600011600021334AC2F8A811314A0C321160E0
:1004700001212F4A943A11600B212E4A84321160D7
:100480000121121F1160AA212A4A8C3211605521C4
:10049000284AC2F88C10264994390968022908D0E4
:1004A00000BF24498831096801F080610029F8D033
:1004B00004E0002000E0401C6428FCD903211D4A10
:1004C00080321160AA211B4AC2F88C105521194AAA
:1004D0008C3211602321174AA43211600121121FAE
:1004E0001160AA21134AAC3211605521116000BF7E
:1004F0001049A831096801F480610029F8D003216E
:100500000C4AA0321160AA210A4AC2F8AC10552147
:10051000084AAC3211600849064AC4321160002111
:10052000034A2832116043F23A01024A11607047CF
:10053000A0C10F4000C00F40DE87280400093D0025
:04000005000001698D
:00000001FF
