:020000040000FA
:100000006802001069010000710100007301000026
:100010007501000077010000790100000000000078
:100020000000000000000000000000007B01000054
:100030007D010000000000007F0100008101000040
:1000400083010000830100008301000083010000A0
:100050008301000083010000830100008301000090
:100060008301000083010000830100008301000080
:100070008301000083010000830100008301000070
:100080008301000083010000830100008301000060
:100090008301000083010000830100008301000050
:1000A0008301000083010000830100008301000040
:1000B0008301000083010000830100008301000030
:1000C00083010000830100008301000000F002F8BA
:1000D00000F03AF80AA090E8000C82448344AAF1A8
:1000E0000107DA4501D100F02FF8AFF2090EBAE8A6
:1000F0000F0013F0010F18BFFB1A43F0010318475C
:10010000D0010000F0010000103A24BF78C878C187
:10011000FAD8520724BF30C830C144BF04680C600D
:10012000704700000023002400250026103A28BF55
:1001300078C1FBD8520728BF30C148BF0B60704759
:100140001FB51FBD10B510BD00F02FF81146FFF709
:10015000F7FF00F051F900F04DF803B4FFF7F2FF9C
:1001600003BC00F055F800000948804709480047E3
:10017000FEE7FEE7FEE7FEE7FEE7FEE7FEE7FEE757
:10018000FEE7FEE704480549034A054B70470000B7
:1001900001030000CD00000068000010680200109C
:1001A00068000010704770477047754600F02CF8E3
:1001B000AE4605006946534620F00700854618B054
:1001C00020B5FFF7DFFFBDE820404FF000064FF0FD
:1001D00000074FF000084FF0000B21F00701AC467C
:1001E000ACE8C009ACE8C009ACE8C009ACE8C0099B
:1001F0008D46704710B50446AFF300802046BDE839
:100200001040FFF7AABF000000487047040000102C
:1002100001491820ABBEFEE726000200704700002F
:1002200070B503460F290FDC114C04EBC3004E00E0
:100230000325B5400468AC4304604D0002FA05F59F
:1002400004682C43046012E0A1F11004E1B2084CF0
:10025000241D04EBC3004E000325B5400468AC43E5
:1002600004604D0002FA05F504682C43046070BD7B
:1002700040C0024070B503460F2910DC134C08251E
:1002800005FB03404E000325B5400468AC43046001
:100290004D0002FA05F504682C43046014E00B4C91
:1002A000241D082505FB0340A1F110056E00032560
:1002B000B5400468AC430460A1F110056D0002FA7A
:1002C00005F504682C43046070BD000000C00240C6
:1002D0009804000000000010040000000801000065
:1002E0009C040000040000106402000024010000CF
:1002F000000000000000000000000000FFFFFFFF02
:1003000000202021394A116000BF3849096801F0F6
:1003100040010029F9D00321344A9C3A11600021A0
:10032000334AC2F8A811314A0C32116001212F4A18
:10033000943A11600B212E4A843211600121121F60
:100340001160AA212A4A8C3211605521284AC2F82C
:100350008C10264994390968022908D000BF244925
:100360008831096801F080610029F8D004E000209C
:1003700000E0401C6428FCD903211D4A8032116032
:10038000AA211B4AC2F88C105521194A8C321160DF
:100390002321174AA43211600121121F1160AA21E2
:1003A000134AAC3211605521116000BF1049A831C9
:1003B000096801F480610029F8D003210C4AA032B9
:1003C0001160AA210A4AC2F8AC105521084AAC3281
:1003D00011600849064AC43211600021034A2832DC
:1003E000116043F23A01024A11607047A0C10F4008
:1003F00000C00F40DE872804FFF782FF2348006813
:1004000040F480502149C439C1F8C400481520493E
:1004100008600846006840F40010086001221821B6
:100420000020FFF727FF022218210020FFF7F8FE27
:100430001748006820F480301549086008460068B5
:1004400020F0E06008600846006840F002000860A4
:100450001AE00F48006840F080700D49086000BF46
:100460000B48406800200028FAD109484068094933
:100470000860084600684FF6F071084005490860BA
:100480000846006800090860E3E70000C4C00F40A8
:0C049000004003400000001000000000CD
:04000005000001698D
:00000001FF
