:020000040000FA
:100000006802001069010000710100007301000026
:100010007501000077010000790100000000000078
:100020000000000000000000000000007B01000054
:100030007D010000000000007F0100008101000040
:100040008301000089040000830100008301000097
:100050008301000083010000830100008301000090
:100060008301000083010000830100008301000080
:100070008301000083010000830100008301000070
:100080008301000083010000830100008301000060
:100090008301000083010000830100008301000050
:1000A0008301000083010000830100008301000040
:1000B0008301000083010000830100008301000030
:1000C00083010000830100008301000000F002F8BA
:1000D00000F03AF80AA090E8000C82448344AAF1A8
:1000E0000107DA4501D100F02FF8AFF2090EBAE8A6
:1000F0000F0013F0010F18BFFB1A43F0010318475C
:100100000C0400002C040000103A24BF78C878C109
:10011000FAD8520724BF30C830C144BF04680C600D
:10012000704700000023002400250026103A28BF55
:1001300078C1FBD8520728BF30C148BF0B60704759
:100140001FB51FBD10B510BD00F02FF81146FFF709
:10015000F7FF00F0D1F900F04DF803B4FFF7F2FF1C
:1001600003BC00F055F800000948804709480047E3
:10017000FEE7FEE7FEE7FEE7FEE7FEE7FEE7FEE757
:10018000FEE7FEE704480549034A054B70470000B7
:1001900091030000CD00000068000010680200100C
:1001A00068000010704770477047754600F02CF8E3
:1001B000AE4605006946534620F00700854618B054
:1001C00020B5FFF7DFFFBDE820404FF000064FF0FD
:1001D00000074FF000084FF0000B21F00701AC467C
:1001E000ACE8C009ACE8C009ACE8C009ACE8C0099B
:1001F0008D46704710B50446AFF300802046BDE839
:100200001040FFF7AABF000000487047040000102C
:1002100001491820ABBEFEE726000200704700002F
:1002200000B50A48008840B901221D21104600F09F
:1002300095F801200549088007E000221D210120D2
:1002400000F08CF800200149088000BD000000107B
:1002500030B50346084C202505FB03402AB1012593
:100260008D4004682C43046005E001258D4004683E
:1002700064EA0504046030BD00C0092000B5032213
:100280001C21012000F03CF801221C211046FFF740
:10029000DFFF00221C21012000F060F800221D2158
:1002A000012000F02DF801221D211046FFF7D0FF9C
:1002B00000BD00004FF04020006F60F003004FF0E1
:1002C00040210867084888610846406940F00300FB
:1002D00048610846006840F0010008600846406830
:1002E00040F001004860704720A1070000000000B6
:1002F000000000000000000000000000FFFFFFFF02
:1003000070B503460F2910DC134C082505FB03408C
:100310004E000325B5400468AC4304604D0002FA6A
:1003200005F504682C43046014E00B4C241D0825DB
:1003300005FB0340A1F110056E000325B5400468DC
:10034000AC430460A1F110056D0002FA05F50468E4
:100350002C43046070BD000000C0024030B503466D
:100360004AB10A4C202505FB034001258D40046855
:100370002C43046008E0054C202505FB03400125C3
:100380008D400468AC43046030BD000014C00920F7
:1003900000202021394A116000BF3849096801F066
:1003A00040010029F9D00321344A9C3A1160002110
:1003B000334AC2F8A811314A0C32116001212F4A88
:1003C000943A11600B212E4A843211600121121FD0
:1003D0001160AA212A4A8C3211605521284AC2F89C
:1003E0008C10264994390968022908D000BF244995
:1003F0008831096801F080610029F8D004E000200C
:1004000000E0401C6428FCD903211D4A80321160A1
:10041000AA211B4AC2F88C105521194A8C3211604E
:100420002321174AA43211600121121F1160AA2151
:10043000134AAC3211605521116000BF1049A83138
:10044000096801F480610029F8D003210C4AA03228
:100450001160AA210A4AC2F8AC105521084AAC32F0
:1004600011600849064AC43211600021034A28324B
:10047000116043F23A01024A11607047A0C10F4077
:1004800000C00F40DE87280400B54FF04020006810
:1004900040F001004FF040210860FFF7C1FE00BDB1
:1004A0001448006840F002001249C439C1F8C40081
:1004B0000846D0F8A80160F00C00C1F8A8014FF080
:1004C0004020C06840F011004FF04021C86001207A
:1004D0004109890001F1E021D1F800110122824097
:1004E00011434209920002F1E022C2F8001100BF5C
:1004F00070470000C4C00F40FFF7D2FFFFF7BEFEF9
:10050000FFF7D8FEFFF78CFE00BFFEE72C050000CA
:100510000000001004000000080100003005000089
:10052000040000106402000024010000000000002C
:04000005000001698D
:00000001FF
