:020000040000FA
:10000000600200104D010000550100005701000082
:10001000590100005B0100005D01000000000000CC
:100020000000000000000000000000005F01000070
:100030006101000000000000630100006501000094
:100040006701000067010000670100006701000010
:100050006701000067010000670100006701000000
:1000600067010000670100006701000067010000F0
:1000700067010000670100006701000067010000E0
:1000800067010000670100006701000067010000D0
:1000900067010000670100006701000067010000C0
:1000A00067010000670100006701000067010000B0
:1000B00067010000670100006701000067010000A0
:1000C00067010000670100006701000000F002F80E
:1000D00000F02CF80AA090E8000C82448344AAF1B6
:1000E0000107DA4501D100F021F8AFF2090EBAE8B4
:1000F0000F0013F0010F18BFFB1A43F0010318475C
:10010000A0020000B0020000002300240025002609
:10011000103A28BF78C1FBD8520728BF30C148BF6A
:100120000B6070471FB51FBD10B510BD00F02FF854
:100130001146FFF7F7FF00F00DF900F04DF803B49A
:10014000FFF7F2FF03BC00F055F8000009488047B4
:1001500009480047FEE7FEE7FEE7FEE7FEE7FEE7A9
:10016000FEE7FEE7FEE7FEE704480549034A054BC4
:100170007047000005020000CD0000006000001084
:1001800060020010600000107047704770477546AD
:1001900000F02CF8AE4605006946534620F00700F3
:1001A000854618B020B5FFF7DFFFBDE820404FF0CF
:1001B00000064FF000074FF000084FF0000B21F051
:1001C0000701AC46ACE8C009ACE8C009ACE8C0091E
:1001D000ACE8C0098D46704710B50446AFF3008007
:1001E0002046BDE81040FFF7AABF00000048704756
:1001F0000000001001491820ABBEFEE726000200F7
:100200007047000000202021394A116000BF3849A2
:10021000096801F040010029F9D00321344A9C3AD1
:1002200011600021334AC2F8A811314A0C32116022
:1002300001212F4A943A11600B212E4A8432116019
:100240000121121F1160AA212A4A8C321160552106
:10025000284AC2F88C10264994390968022908D026
:1002600000BF24498831096801F080610029F8D075
:1002700004E0002000E0401C6428FCD903211D4A52
:1002800080321160AA211B4AC2F88C105521194AEC
:100290008C3211602321174AA43211600121121FF0
:1002A0001160AA21134AAC3211605521116000BFC0
:1002B0001049A831096801F480610029F8D00321B0
:1002C0000C4AA0321160AA210A4AC2F8AC1055218A
:1002D000084AAC3211600849064AC4321160002154
:1002E000034A2832116043F23A01024A1160704712
:1002F000A0C10F4000C00F40DE872804FFFFFFFFB2
:100300000820114908601048C438D0F8A80120F02E
:10031000C0000D49E431086050200C4908600C48C9
:10032000007B40F080000A490873752008700020A7
:100330000871102006492831087003200449087309
:100340000720087270470000C4C00F4000C0024080
:1003500000C000401FB50DA30FCB8DE80F00FFF7C5
:10036000CFFF11E00AE0002404E01DF804000B496F
:100370000870641C1DF80400A042F6D20748007DF6
:1003800000F020002028EED0ECE700004B616C70FC
:10039000657368204D616C692E00000000C000404C
:1003A000B00300000000001060020000080100001F
:040000050000014DA9
:00000001FF
